:030000000204A255
:0C04A200787FE4F6D8FD7581420204E981
:10072B00011401011501011600011764011864027F
:0D073B0019000A021B000A041D0000000046
:10001E00120851EF24FE602314604714606B240312
:10002E00707075160112087ABF080A74CE2517F57E
:10003E001724CEF517AD18AF17805E7516027D1416
:10004E007F6412052EE51564017051F515051AE54C
:10005E001A700205191208B08F0F8E0E8D0D8C0CB2
:10006E00803A7516037D647F1412052EE514640123
:10007E00702AF514051CE51C7002051B1208B08FC2
:10008E000B8E0A8D098C0880137516047D647F64AF
:10009E0080077516057D1E7F1E12052EE515703420
:1000AE00E5166402602E7515017D647F1412052E0F
:1000BE001208B0C3EF950FFFEE950EFEED950DFDF8
:1000CE00EC950CFC78021203F9EF543FFFE4FEFDB1
:1000DE00FC1207A3E5147034E5166403602E751444
:1000EE00017D147F6412052E1208B0C3EF950BFF2D
:1000FE00EE950AFEED9509FDEC9508FC78021203CB
:10010E00F9EF543FFFE4FEFDFC1207A3E5147071F6
:10011E0012087AEF640860691208B0C3EF950BFFFE
:10012E00EE950AFEED9509FDEC9508FCE47B2C7A24
:10013E0001F9F8C31203E850481208B08F138E125B
:10014E008D118C107D01E4FF120831120851BF038E
:10015E00291208B0C3EF9513FFEE9512FEED95111F
:10016E00FDEC9510FCE47B64FAF9F8D31203E84039
:10017E00097D507F1412052E80D17D017F0112085A
:10018E0031E5157071120883EF640760691208B0CB
:10019E00C3EF950FFFEE950EFEED950DFDEC950C54
:1001AE00FCE47B2C7A01F9F8C31203E850481208DC
:1001BE00B08F138E128D118C10E4FD7F0112083159
:1001CE00120851BF02291208B0C3EF9513FFEE9526
:1001DE0012FEED9511FDEC9510FCE47B64FAF9F836
:1001EE00D31203E840097D147F5012052E80D17D75
:1001FE00017F01120831D3E51A951CE519951B40B4
:10020E0018751764AE1BAF1C7C007D6412034BACDB
:10021E0019AD1A12035D8F1822751864AE19AF1A34
:10022E007C007D6412034BAC1BAD1C12035D8F175B
:01023E00229D
:1007D90012087AEF6408702B120883EF64057023FE
:1007E9007D507F5012052E7D01E4FF120831120859
:1007F90051BF0308120883EF640560F27D017F0190
:04080900120831227E
:10076D00120883EF6407702D120883BF072012084B
:10077D007AEF64086008120851EF64036010E4FD1D
:10078D007F011208317D507F5012052E80DA7D01D8
:05079D007F011208318C
:0107A2002234
:10023F0012088CEF640D600B120895EF640D6003CC
:10024F0002034A1208B0C3EF9520FFEE951FFEED93
:10025F00951EFDEC951DFCE47BDC7A05F9F8D312B5
:10026F0003E8400302034A7D327F3212052E7F647A
:10027F007E007D007C001207A312088CEF640D60D6
:10028F000B120895EF640D600302034AE4FD7F0132
:10029F0012083112088CEF640D6006120895BF0D1D
:1002AF00097D647F6412052E80E91206E5EF70095F
:1002BF007D647F6412052E80F11206E5BF0D097D66
:1002CF00647F6412052E80F17D017F0112083112C7
:1002DF00089EBF0911120883EF640760097D647FD0
:1002EF006412052E80E9120851EF64037042120860
:1002FF009EBF0C17120883EF6407600F120851BFDF
:10030F0003097D507F5012052E80E312089EBF090E
:10031F0016120851BF03107D01E4FF1208317D3C16
:10032F007F3212052E80E47D017F0112083180B6E5
:0B033F001208B08F208E1F8D1E8C1D39
:01034A002290
:10040C001208A7EF640D60030204A17D507F501207
:10041C00052E7F147E007D007C001207A31208A716
:10042C00EF640D7070E4FD7F011208311208A7BF54
:10043C000D097D327F6412052E80F17D017F011242
:10044C00083112089EEF640C60097D647F6412050C
:10045C002E80EF120851EF6403703A12089EBF0C05
:10046C000F120851BF03097D507F5012052E80EBEF
:10047C0012089EBF0916120851BF03107D01E4FF3C
:10048C001208317D3C7F3212052E80E47D017F0104
:06049C0012083180BE22AF
:10068F00E4FDFF12052E75891112000E12086F7D01
:10069F00017F01120831D2AF7FF47E017D007C0013
:1006AF001207A31208B91200068F21120006C3EF1A
:1006BF009521C39402501712040C12076D1207D91B
:1006CF0012001E12023F12076D1207D980DDE4FDE2
:0606DF00FF12052E80FE53
:0C074800013D00013E00013B00013C00AF
:0B000E00758CFF758A38D2A9D28C22B5
:10083100BF0106D292C2938007EF7004C292D29395
:10084100BD0105D294C29522ED7004C294D29522C5
:10052E00AB07AA0520A00AEBA2E713FBEAA2E7138A
:10053E00FAEBF4606AD3EA648094D0400CEBFF339C
:10054E0095E0FE7C007D038031D3EA648094BC404C
:10055E0017EBFF3395E0FEEF7802C333CE33CED8E0
:10056E00F9FF7C007D05802ED3EA648094A84010AC
:10057E00EBFF3395E0FE7C007D0712034B0D8016DA
:10058E00D3EA648094944015EBFF3395E0FE7C0033
:10059E007D0912034B0D1203B28F3D80028B3DEB92
:0605AE00F460028A3E2207
:03000B00020637B3
:09063700C0E0C0D075D000C00085
:10064000758CFF758A38053B053CD3E53B64809487
:10065000E34003753B00D3E53C648094E3400375BD
:100660003C00C3E53D6480F8E53B6480985004D2CB
:10067000908002C290C3E53E6480F8E53C648098B7
:080680005004D2918002C291E6
:07068800D000D0D0D0E03219
:10075400013A0004310000000004350000000001EB
:0207640039005A
:100851003081062082037F01223081063082037FAE
:0E08610002222081062082037F03227F0422D0
:09087A003083037F05227F082270
:090883003084037F07227F052267
:09088C002087037F0D227F00226A
:0908950020A6037F0D227F002242
:1006E500E4F523F524F52220850405238003E4F5AC
:1006F50023D3E5246480F8E52364809840038523AB
:10070500247F017E007D007C001207A30522C3E53E
:10071500226480948A40D0C3E52464809484500385
:050725007F00227F0DA2
:01072A0022AC
:09089E002086037F0C227F092251
:0908A70020A7037F0D227F00222F
:0708B900D288D2B8D2A822B8
:030003000205B43F
:1005B400C0E0C0F0C083C082C0D075D000C000C00D
:0D05C40001C002C003C004C005C006C0078E
:1005D1001208B08F308E2F8D2E8C2DE5397024C3EB
:1005E100E5309534FFE52F9533FEE52E9532FDE597
:1005F1002D9531FCE47B2C7A01F9F8C31203E85004
:1006010002053A853034852F33852E32852D31858B
:0B0611003038852F37852E36852D35BB
:10061C00D007D006D005D004D003D002D001D00032
:0B062C00D0D0D082D083D0F0D0E032DC
:03000600AF3A22EC
:06076600043F000000004A
:0908B000AF42AE41AD40AC3F2265
:0807A3008F288E278D268C257E
:1007AB001208B08F2C8E2B8D2A8C291208B0C3EF18
:1007BB00952CFFEE952BFEED952AFDEC9529FCABC8
:0D07CB0028AA27A926A825D31203E850DE8E
:0107D80022FE
:0B086F00758DF8758B30D2ABD28E2255
:03001B0002080DCB
:10080D00C0E0C0D0758DF8758B30E5422401F542FE
:10081D00E43541F541E43540F540E4353FF53FD051
:04082D00D0D0E03215
:1004AE0002068FE493A3F8E493A34003F68001F2CF
:1004BE0008DFF48029E493A3F85407240CC8C3334F
:1004CE00C4540F4420C8834004F456800146F6DF1E
:1004DE00E4800B010204081020408090072BE47E7C
:1004EE00019360BCA3FF543F30E509541FFEE49313
:1004FE00A360010ECF54C025E060A840B8E493A3DA
:10050E00FAE493A3F8E493A3C8C582C8CAC583CA04
:10051E00F0A3C8C582C8CAC583CADFE9DEE780BEBC
:01076C00008C
:10034B00EF8DF0A4A8F0CF8CF0A428CE8DF0A42EC6
:02035B00FE2280
:10035D00BC000BBE0029EF8DF084FFADF022E4CC84
:10036D00F875F008EF2FFFEE33FEEC33FCEE9DEC4D
:10037D00984005FCEE9DFE0FD5F0E9E4CEFD22ED93
:10038D00F8F5F0EE8420D21CFEADF075F008EF2FDD
:10039D00FFED33FD4007985006D5F0F222C398FDCE
:0503AD000FD5F0EA226B
:1003B200C2D5EC30E709B2D5E4C39DFDE49CFCEE66
:1003C20030E715B2D5E4C39FFFE49EFE12035DC37E
:1003D200E49DFDE49CFC800312035D30D507C3E479
:0603E2009FFFE49EFE22D5
:1003E800EB9FF5F0EA9E42F0E99D42F0E89C45F06B
:0103F80022E2
:1003F900E8600FECC313FCED13FDEE13FEEF13FFE2
:03040900D8F12205
:00000001FF
